:020000040000FA
:10000000600200104901000051010000530100008E
:1000100000000000000000000000000000000000E0
:10002000000000000000000000000000550100007A
:10003000000000000000000057010000590100000E
:100040005B0100005B0100005B0100005B01000040
:100050005B0100005B0100005B0100005B01000030
:100060005B0100005B0100005B0100005B01000020
:100070005B0100005B0100005B0100005B01000010
:100080005B0100005B0100005B0100005B01000000
:100090005B0100005B0100005B0100005B010000F0
:1000A0005B0100005B0100005B0100005B010000E0
:1000B000010300005B0100005B0100005B01000028
:1000C00000F002F800F030F80CA030C8083824180E
:1000D0002D18A246671EAB4654465D46AC4201D180
:1000E00000F022F87E460F3E0FCCB6460126334282
:1000F00000D0FB1AA246AB4633431847B4010000B8
:10010000C40100000023002400250026103A01D37A
:1001100078C1FBD8520700D330C100D50B607047BF
:100120001FB51FBD10B510BD00F02BF81146FFF72D
:10013000F7FF00F073F900F043F803B4FFF7F2FFA4
:1001400003BC00F049F80000074880470748004713
:10015000FEE7FEE7FEE7FEE7FEE7FEE704480549A7
:10016000034A054B704700007D030000C1000000FA
:1001700060000010600200106000001070477047BF
:100180007047754600F024F8AE46050069465346B0
:10019000C008C000854618B020B5FFF7DFFF60BC7F
:1001A00000274908B6460026C0C5C0C5C0C5C0C5A1
:1001B000C0C5C0C5C0C5C0C5403D49008D467047DB
:1001C00010B50446C046C0462046FFF7B6FF10BD36
:1001D000004870470000001001491820ABBEFEE740
:1001E00026000200704700002C4800680121090425
:1001F00008432A4908602A488068C008C000284986
:1002000088600846806888600846806AC008C00028
:1002100088620846806A88622048006801210904D3
:1002200088431E49086008460068402108431B496E
:1002300008601C480068012108431A4908601A48F0
:10024000C06B012108431849C863164800680221A1
:100250000843144908601448C06B0221084312493E
:10026000C8630F4880304068C008C0000C49803126
:1002700048600E480068400840000C490860084883
:1002800080308068C008C000054980318860074818
:100290000068022188430549086070478080044057
:1002A0000040044000800250C03F025000800350D4
:1002B000840400000000001060020000040100003F
:1002C000000000000000000000000000000000002E
:1002D000000000000000000000000000000000001E
:1002E000000000000000000000000000000000000E
:1002F000000000000000000000000000FFFFFFFF02
:100300001B488069C007C00F002815D01948C06B72
:10031000400840001749C86300BF1748C06BC007BA
:10032000C00F0028F9D01348C06B012108431149C0
:10033000C86301200E49C8610D4880690221084048
:10034000022813D10B48C06B88430A49C86300BF19
:100350000948C06B022108400228F9D10548C06B4A
:1003600008430449C86302200149C861704700007E
:1003700000800350C03F0250C03F035008B52548DD
:10038000806B20218843234988630020224908622A
:10039000009003E000BF0098401C00900098C8281F
:1003A000F8D301201C4940310860486000204860B3
:1003B0000120486000BF184840304068C007C00FA7
:1003C0000028F8D02320144988601248806B8021CF
:1003D00088431049886300BF0F48C068C007C00F3A
:1003E0000028F9D003200C494031086301204863FC
:1003F000002048630120486300BF07484030406B3D
:10040000C007C00F0028F8D001200349403188639D
:1004100008BD00000082044000800440FFF7E4FEB5
:10042000164800690121084314490861084600691B
:10043000022108431149086108464068400840000D
:10044000486008464068022188430C4948600846D5
:10045000C06840084000C8600846C0680221884360
:100460000649C8601C20002805DBC206D20E012107
:100470009140034A116000BF00BFFEE700800350B7
:0404800000E100E0B7
:04000005000000C136
:00000001FF
